:02000000452891
:10000600831203139301831614180A2806288312F1
:080016008C111308F000080032
:10001E008312031326089300831614181728132827
:10002E0083128C111A30FC00F830FD00FD0B1D28D8
:08003E00FC0B1D280000080066
:100046008312031307114430A6000F202408A600CC
:0C0056000F202508A6000F200715080049
:100062004030831603139400213083129400080059
:100072008312031307114530A6000F202408A6009F
:080082000F2003200715080000
:10008A008316031386010711871107168712831235
:10009A0007150230FB000430FC00BA30FD00FD0BEE
:1000AA005428FC0B5428FB0B542800003120A401CF
:1000BA00A50123200330A0000030A100200821045C
:1000CA00031992281230A400AA30A5002320063072
:1000DA00FB001330FC00AD30FD00FD0B7228FC0B59
:1000EA007228FB0B7228000000001230A400553061
:1000FA00A50023200630FB001330FC00AD30FD00C4
:10010A00FD0B8528FC0B8528FB0B852800000000C9
:10011A000130A002031CA10363281230A400392075
:10012A00700886000230FB000430FC00BA30FD0083
:10013A00FD0B9D28FC0B9D28FB0B9D280000A42885
:02400E004A2F37
:00000001FF
