:020000008A284C
:1000060083120313260893008C190A2807288C11DB
:020016000800E0
:1000180028308312031394008316910180309400D2
:06002800273093000800E0
:10002E00831203138C1183161114111C1F281C2804
:10003E0083128C114630A60003208316111F2C2824
:10004E001115111D2B282828482883122408A600D4
:10005E0003208316111F38281115111D3728342837
:10006E00482883122508A60003208316111F442852
:10007E001115111D4328402848281115111D482817
:04008E0045280800F9
:10009200831203138C1183161114111C51284E283C
:1000A20083128C114630A60003208316111F5E288E
:1000B2001115111D5D285A28892883122408A600CB
:1000C20003208316911483128C19682864288C11DA
:1000D2004730A60003208316111F74281115111D25
:1000E2007328702889289115141878287528831286
:1000F2001308A5008C11831691161116111E822861
:100102007F281115111D8628832883122508F000E7
:020112000800E3
:10011400831603138715071686010C200630FB008F
:100124001330FC00AD30FD00FD0B9628FC0B962827
:10013400FB0B962800000000831286010130A40006
:10014400A50117200230FB000430FC00BA30FD008A
:10015400FD0BAA28FC0BAA28FB0BAA2800000230DE
:100164008312A0000030A100200821040319F42800
:100174001330A400AA30A50017200630FB0013306A
:10018400FC00AD30FD00FD0BC528FC0BC528FB0BA6
:10019400C5280000000013308312A4005530A500C8
:1001A40017200630FB001330FC00AD30FD00FD0BC2
:1001B400D928FC0BD928FB0BD928000000000230F9
:1001C400FB000430FC00BA30FD00FD0BE728FC0BFB
:1001D400E728FB0BE728000001308312A002031C70
:1001E400A103B6281330A400492083120313700816
:1001F40086000230FB000430FC00BA30FD00FD0B29
:0E0204000129FC0B0129FB0B01290000082930
:02400E004A2F37
:00000001FF
